{
  "contractName": "Lampe21Contract",
  "abi": [
    {
      "constant": true,
      "inputs": [
        {
          "name": "",
          "type": "address"
        }
      ],
      "name": "balances",
      "outputs": [
        {
          "name": "",
          "type": "uint256"
        }
      ],
      "payable": false,
      "stateMutability": "view",
      "type": "function"
    },
    {
      "inputs": [],
      "payable": false,
      "stateMutability": "nonpayable",
      "type": "constructor"
    },
    {
      "constant": false,
      "inputs": [],
      "name": "buyLight",
      "outputs": [],
      "payable": true,
      "stateMutability": "payable",
      "type": "function"
    }
  ],
  "bytecode": "0x6080604052670de0b6b3a764000060025534801561001c57600080fd5b5073c25c752e3aee9b8ff18bb227b68cc330a99477e46000806101000a81548173ffffffffffffffffffffffffffffffffffffffff021916908373ffffffffffffffffffffffffffffffffffffffff16021790555061025f806100806000396000f3fe6080604052600436106100295760003560e01c80631d1180d21461002e57806327e235e314610038575b600080fd5b61003661009d565b005b34801561004457600080fd5b506100876004803603602081101561005b57600080fd5b81019080803573ffffffffffffffffffffffffffffffffffffffff16906020019092919050505061021b565b6040518082815260200191505060405180910390f35b600160003373ffffffffffffffffffffffffffffffffffffffff1673ffffffffffffffffffffffffffffffffffffffff16815260200190815260200160002054670de0b6b3a7640000111561015a576040517f08c379a00000000000000000000000000000000000000000000000000000000081526004018080602001828103825260158152602001807f496e73756666696369656e742062616c616e63652e000000000000000000000081525060200191505060405180910390fd5b600254600160003373ffffffffffffffffffffffffffffffffffffffff1673ffffffffffffffffffffffffffffffffffffffff16815260200190815260200160002060008282540392505081905550600254600160008060009054906101000a900473ffffffffffffffffffffffffffffffffffffffff1673ffffffffffffffffffffffffffffffffffffffff1673ffffffffffffffffffffffffffffffffffffffff16815260200190815260200160002060008282540192505081905550565b6001602052806000526040600020600091509050548156fea165627a7a72305820cd3e679845414161d73ee09bc82a40ac5abf87c74befd33c44b8fc3035e0f3980029",
  "source": "pragma solidity ^0.5;\r\n\r\ncontract Lampe21Contract {\r\n  address payable owner;\r\n  mapping (address => uint) public balances;\r\n  uint256 amount = 1000000000000000000;\r\n\r\n  constructor() public {\r\n    owner = address(0xC25C752E3Aee9B8ff18bb227B68CC330a99477E4);\r\n  }\r\n\r\n  function buyLight() public payable {\r\n    require(1000000000000000000 <= balances[msg.sender], \"Insufficient balance.\");\r\n    balances[msg.sender] -= amount;\r\n    balances[owner] += amount;\r\n  }\r\n}",
  "sourcePath": "C:/Users/David/Desktop/ether/ethereum_democase/contracts/Lampe21Contract.sol",
  "compiler": {
    "name": "solc",
    "version": "0.5.8+commit.23d335f2.Emscripten.clang"
  },
  "schemaVersion": "3.0.16",
  "updatedAt": "2019-09-28T22:05:49.135Z",
  "devdoc": {
    "methods": {}
  },
  "userdoc": {
    "methods": {}
  }
}